{
  "contractName": "VaultFactory",
  "abi": [
    {
      "inputs": [
        {
          "internalType": "address",
          "name": "",
          "type": "address"
        },
        {
          "internalType": "uint256",
          "name": "",
          "type": "uint256"
        }
      ],
      "name": "vaultMapping",
      "outputs": [
        {
          "internalType": "contract RWAVault",
          "name": "",
          "type": "address"
        }
      ],
      "stateMutability": "view",
      "type": "function",
      "constant": true
    },
    {
      "inputs": [
        {
          "internalType": "address",
          "name": "_tokenfactory",
          "type": "address"
        }
      ],
      "name": "CreateNewVault",
      "outputs": [],
      "stateMutability": "nonpayable",
      "type": "function"
    }
  ],
  "bytecode": "0x608060405234801561000f575f80fd5b50611c9a8061001d5f395ff3fe608060405234801561000f575f80fd5b5060043610610034575f3560e01c8063052e9301146100385780637fb2c54214610068575b5f80fd5b610052600480360381019061004d919061023b565b610084565b60405161005f91906102d4565b60405180910390f35b610082600480360381019061007d91906102ed565b6100cb565b005b5f602052815f5260405f20818154811061009c575f80fd5b905f5260205f20015f915091509054906101000a900473ffffffffffffffffffffffffffffffffffffffff1681565b5f816040516100d99061019d565b6100e39190610327565b604051809103905ff0801580156100fc573d5f803e3d5ffd5b5090505f803373ffffffffffffffffffffffffffffffffffffffff1673ffffffffffffffffffffffffffffffffffffffff1681526020019081526020015f2081908060018154018082558091505060019003905f5260205f20015f9091909190916101000a81548173ffffffffffffffffffffffffffffffffffffffff021916908373ffffffffffffffffffffffffffffffffffffffff1602179055505050565b6119248061034183390190565b5f80fd5b5f73ffffffffffffffffffffffffffffffffffffffff82169050919050565b5f6101d7826101ae565b9050919050565b6101e7816101cd565b81146101f1575f80fd5b50565b5f81359050610202816101de565b92915050565b5f819050919050565b61021a81610208565b8114610224575f80fd5b50565b5f8135905061023581610211565b92915050565b5f8060408385031215610251576102506101aa565b5b5f61025e858286016101f4565b925050602061026f85828601610227565b9150509250929050565b5f819050919050565b5f61029c610297610292846101ae565b610279565b6101ae565b9050919050565b5f6102ad82610282565b9050919050565b5f6102be826102a3565b9050919050565b6102ce816102b4565b82525050565b5f6020820190506102e75f8301846102c5565b92915050565b5f60208284031215610302576103016101aa565b5b5f61030f848285016101f4565b91505092915050565b610321816101cd565b82525050565b5f60208201905061033a5f830184610318565b9291505056fe608060405234801562000010575f80fd5b506040516200192438038062001924833981810160405281019062000036919062000128565b335f806101000a81548173ffffffffffffffffffffffffffffffffffffffff021916908373ffffffffffffffffffffffffffffffffffffffff1602179055508060035f6101000a81548173ffffffffffffffffffffffffffffffffffffffff021916908373ffffffffffffffffffffffffffffffffffffffff16021790555042600a819055505062000158565b5f80fd5b5f73ffffffffffffffffffffffffffffffffffffffff82169050919050565b5f620000f282620000c7565b9050919050565b6200010481620000e6565b81146200010f575f80fd5b50565b5f815190506200012281620000f9565b92915050565b5f6020828403121562000140576200013f620000c3565b5b5f6200014f8482850162000112565b91505092915050565b6117be80620001665f395ff3fe6080604052600436106100dc575f3560e01c8063610a734d1161007e5780638da5cb5b116100585780638da5cb5b1461026657806390f4e48414610290578063a5c42ef1146102ba578063dd9d37b8146102e4576100dc565b8063610a734d146101ea57806365008cd614610214578063882ed5e01461023e576100dc565b80632d296bf1116100ba5780632d296bf1146101505780633a6737411461016c5780633a98ef39146101965780634c422099146101c0576100dc565b806311342af8146100e05780631940d09a146100fc57806326d26da814610126575b5f80fd5b6100fa60048036038101906100f59190610d4b565b61030e565b005b348015610107575f80fd5b5061011061076d565b60405161011d9190610d8e565b60405180910390f35b348015610131575f80fd5b5061013a610773565b6040516101479190610d8e565b60405180910390f35b61016a60048036038101906101659190610dd1565b610779565b005b348015610177575f80fd5b506101806108c9565b60405161018d9190610e0b565b60405180910390f35b3480156101a1575f80fd5b506101aa6108ee565b6040516101b79190610d8e565b60405180910390f35b3480156101cb575f80fd5b506101d46108f4565b6040516101e19190610d8e565b60405180910390f35b3480156101f5575f80fd5b506101fe6108fa565b60405161020b9190610e0b565b60405180910390f35b34801561021f575f80fd5b5061022861091f565b6040516102359190610d8e565b60405180910390f35b348015610249575f80fd5b50610264600480360381019061025f9190610e24565b610925565b005b348015610271575f80fd5b5061027a610c8c565b6040516102879190610e0b565b60405180910390f35b34801561029b575f80fd5b506102a4610caf565b6040516102b19190610e0b565b60405180910390f35b3480156102c5575f80fd5b506102ce610cd4565b6040516102db9190610d8e565b60405180910390f35b3480156102ef575f80fd5b506102f8610cda565b6040516103059190610d8e565b60405180910390f35b600a544261031c9190610eda565b6009541115610360576040517f08c379a000000000000000000000000000000000000000000000000000000000815260040161035790610f8d565b60405180910390fd5b5f73ffffffffffffffffffffffffffffffffffffffff1660015f9054906101000a900473ffffffffffffffffffffffffffffffffffffffff1673ffffffffffffffffffffffffffffffffffffffff16036103ef576040517f08c379a00000000000000000000000000000000000000000000000000000000081526004016103e69061101b565b60405180910390fd5b6007546008546103ff9190611039565b3414610440576040517f08c379a0000000000000000000000000000000000000000000000000000000008152600401610437906110ea565b60405180910390fd5b5f60025f9054906101000a900473ffffffffffffffffffffffffffffffffffffffff1690505f8173ffffffffffffffffffffffffffffffffffffffff16631d92f25e6040518163ffffffff1660e01b81526004015f60405180830381865afa1580156104ae573d5f803e3d5ffd5b505050506040513d5f823e3d601f19601f820116820180604052508101906104d6919061126c565b90505f5b81518110156105f7575f6007548473ffffffffffffffffffffffffffffffffffffffff166370a08231858581518110610516576105156112b3565b5b60200260200101516040518263ffffffff1660e01b815260040161053a9190610e0b565b602060405180830381865afa158015610555573d5f803e3d5ffd5b505050506040513d601f19601f8201168201806040525081019061057991906112f4565b6105839190611039565b9050828281518110610598576105976112b3565b5b602002602001015173ffffffffffffffffffffffffffffffffffffffff166108fc8290811502906040515f60405180830381858888f193505050501580156105e2573d5f803e3d5ffd5b505080806105ef9061131f565b9150506104da565b508173ffffffffffffffffffffffffffffffffffffffff1663c17e2aa16040518163ffffffff1660e01b81526004015f604051808303815f87803b15801561063d575f80fd5b505af115801561064f573d5f803e3d5ffd5b505050505f8390508073ffffffffffffffffffffffffffffffffffffffff166342842e0e30336004546040518463ffffffff1660e01b815260040161069693929190611366565b5f604051808303815f87803b1580156106ad575f80fd5b505af11580156106bf573d5f803e3d5ffd5b505050505f6004819055505f60015f6101000a81548173ffffffffffffffffffffffffffffffffffffffff021916908373ffffffffffffffffffffffffffffffffffffffff1602179055506004548473ffffffffffffffffffffffffffffffffffffffff163373ffffffffffffffffffffffffffffffffffffffff167fbbde41973f9ce4890f7ad9762c23d8191f261fd643bdf13ed8bbc10549b49fcb60405160405180910390a450505050565b60075481565b60065481565b60055481106107bd576040517f08c379a00000000000000000000000000000000000000000000000000000000081526004016107b49061140b565b60405180910390fd5b600654816107cb9190611039565b341461080c576040517f08c379a000000000000000000000000000000000000000000000000000000000815260040161080390611499565b60405180910390fd5b5f60025f9054906101000a900473ffffffffffffffffffffffffffffffffffffffff1690508160085f82825461084291906114b7565b925050819055508073ffffffffffffffffffffffffffffffffffffffff1663a9059cbb33846040518363ffffffff1660e01b81526004016108849291906114ea565b6020604051808303815f875af11580156108a0573d5f803e3d5ffd5b505050506040513d601f19601f820116820180604052508101906108c49190611546565b505050565b60025f9054906101000a900473ffffffffffffffffffffffffffffffffffffffff1681565b60055481565b60085481565b60035f9054906101000a900473ffffffffffffffffffffffffffffffffffffffff1681565b600a5481565b5f8403610967576040517f08c379a000000000000000000000000000000000000000000000000000000000815260040161095e906115bb565b60405180910390fd5b5f83116109a9576040517f08c379a00000000000000000000000000000000000000000000000000000000081526004016109a090611649565b60405180910390fd5b8282116109eb576040517f08c379a00000000000000000000000000000000000000000000000000000000081526004016109e2906116d7565b60405180910390fd5b5f8690503373ffffffffffffffffffffffffffffffffffffffff168173ffffffffffffffffffffffffffffffffffffffff16636352211e886040518263ffffffff1660e01b8152600401610a3f9190610d8e565b602060405180830381865afa158015610a5a573d5f803e3d5ffd5b505050506040513d601f19601f82011682018060405250810190610a7e91906116f5565b73ffffffffffffffffffffffffffffffffffffffff1614610ad4576040517f08c379a0000000000000000000000000000000000000000000000000000000008152600401610acb9061176a565b60405180910390fd5b8073ffffffffffffffffffffffffffffffffffffffff166342842e0e3330896040518463ffffffff1660e01b8152600401610b1193929190611366565b5f604051808303815f87803b158015610b28575f80fd5b505af1158015610b3a573d5f803e3d5ffd5b505050508660015f6101000a81548173ffffffffffffffffffffffffffffffffffffffff021916908373ffffffffffffffffffffffffffffffffffffffff160217905550846005819055508360068190555082600781905550816009819055505f60035f9054906101000a900473ffffffffffffffffffffffffffffffffffffffff1690508073ffffffffffffffffffffffffffffffffffffffff16631c4b40156005546040518263ffffffff1660e01b8152600401610bfa9190610d8e565b5f604051808303815f87803b158015610c11575f80fd5b505af1158015610c23573d5f803e3d5ffd5b50505050868873ffffffffffffffffffffffffffffffffffffffff163373ffffffffffffffffffffffffffffffffffffffff167f2214288c094665e4969e2968c71e56e0ab3c69646a5c773ec8c2a7ca3bf1880860405160405180910390a45050505050505050565b5f8054906101000a900473ffffffffffffffffffffffffffffffffffffffff1681565b60015f9054906101000a900473ffffffffffffffffffffffffffffffffffffffff1681565b60045481565b60095481565b5f604051905090565b5f80fd5b5f80fd5b5f73ffffffffffffffffffffffffffffffffffffffff82169050919050565b5f610d1a82610cf1565b9050919050565b610d2a81610d10565b8114610d34575f80fd5b50565b5f81359050610d4581610d21565b92915050565b5f60208284031215610d6057610d5f610ce9565b5b5f610d6d84828501610d37565b91505092915050565b5f819050919050565b610d8881610d76565b82525050565b5f602082019050610da15f830184610d7f565b92915050565b610db081610d76565b8114610dba575f80fd5b50565b5f81359050610dcb81610da7565b92915050565b5f60208284031215610de657610de5610ce9565b5b5f610df384828501610dbd565b91505092915050565b610e0581610d10565b82525050565b5f602082019050610e1e5f830184610dfc565b92915050565b5f805f805f8060c08789031215610e3e57610e3d610ce9565b5b5f610e4b89828a01610d37565b9650506020610e5c89828a01610dbd565b9550506040610e6d89828a01610dbd565b9450506060610e7e89828a01610dbd565b9350506080610e8f89828a01610dbd565b92505060a0610ea089828a01610dbd565b9150509295509295509295565b7f4e487b71000000000000000000000000000000000000000000000000000000005f52601160045260245ffd5b5f610ee482610d76565b9150610eef83610d76565b9250828203905081811115610f0757610f06610ead565b5b92915050565b5f82825260208201905092915050565b7f63616e206e6f74207769746864726177206265666f726520726563616c6c20745f8201527f696d650000000000000000000000000000000000000000000000000000000000602082015250565b5f610f77602383610f0d565b9150610f8282610f1d565b604082019050919050565b5f6020820190508181035f830152610fa481610f6b565b9050919050565b7f4e6f204e4654206465706f73697465642066726f6d207468697320636f6e74725f8201527f6163740000000000000000000000000000000000000000000000000000000000602082015250565b5f611005602383610f0d565b915061101082610fab565b604082019050919050565b5f6020820190508181035f83015261103281610ff9565b9050919050565b5f61104382610d76565b915061104e83610d76565b925082820261105c81610d76565b9150828204841483151761107357611072610ead565b5b5092915050565b7f7061796d656e742073686f756c642062652065786163746c7920657175616c205f8201527f746f20726563616c6c20616d6f756e7400000000000000000000000000000000602082015250565b5f6110d4603083610f0d565b91506110df8261107a565b604082019050919050565b5f6020820190508181035f830152611101816110c8565b9050919050565b5f80fd5b5f601f19601f8301169050919050565b7f4e487b71000000000000000000000000000000000000000000000000000000005f52604160045260245ffd5b6111528261110c565b810181811067ffffffffffffffff821117156111715761117061111c565b5b80604052505050565b5f611183610ce0565b905061118f8282611149565b919050565b5f67ffffffffffffffff8211156111ae576111ad61111c565b5b602082029050602081019050919050565b5f80fd5b5f815190506111d181610d21565b92915050565b5f6111e96111e484611194565b61117a565b9050808382526020820190506020840283018581111561120c5761120b6111bf565b5b835b81811015611235578061122188826111c3565b84526020840193505060208101905061120e565b5050509392505050565b5f82601f83011261125357611252611108565b5b81516112638482602086016111d7565b91505092915050565b5f6020828403121561128157611280610ce9565b5b5f82015167ffffffffffffffff81111561129e5761129d610ced565b5b6112aa8482850161123f565b91505092915050565b7f4e487b71000000000000000000000000000000000000000000000000000000005f52603260045260245ffd5b5f815190506112ee81610da7565b92915050565b5f6020828403121561130957611308610ce9565b5b5f611316848285016112e0565b91505092915050565b5f61132982610d76565b91507fffffffffffffffffffffffffffffffffffffffffffffffffffffffffffffffff820361135b5761135a610ead565b5b600182019050919050565b5f6060820190506113795f830186610dfc565b6113866020830185610dfc565b6113936040830184610d7f565b949350505050565b7f616d6f756e742073686f756c64206265206c657373207468616e20746f74616c5f8201527f2073686172657300000000000000000000000000000000000000000000000000602082015250565b5f6113f5602783610f0d565b91506114008261139b565b604082019050919050565b5f6020820190508181035f830152611422816113e9565b9050919050565b7f7061796d656e742073686f756c642062652065786163746c7920657175616c205f8201527f746f205f616d6f756e7400000000000000000000000000000000000000000000602082015250565b5f611483602a83610f0d565b915061148e82611429565b604082019050919050565b5f6020820190508181035f8301526114b081611477565b9050919050565b5f6114c182610d76565b91506114cc83610d76565b92508282019050808211156114e4576114e3610ead565b5b92915050565b5f6040820190506114fd5f830185610dfc565b61150a6020830184610d7f565b9392505050565b5f8115159050919050565b61152581611511565b811461152f575f80fd5b50565b5f815190506115408161151c565b92915050565b5f6020828403121561155b5761155a610ce9565b5b5f61156884828501611532565b91505092915050565b7f7368617265732073686f756c642062652067726561746572207468616e2030005f82015250565b5f6115a5601f83610f0d565b91506115b082611571565b602082019050919050565b5f6020820190508181035f8301526115d281611599565b9050919050565b7f49544f2070726963652073686f756c642062652067726561746572207468616e5f8201527f2030000000000000000000000000000000000000000000000000000000000000602082015250565b5f611633602283610f0d565b915061163e826115d9565b604082019050919050565b5f6020820190508181035f83015261166081611627565b9050919050565b7f726563616c6c2070726963652073686f756c64206265206772656174657220745f8201527f68616e2049544f20707269636500000000000000000000000000000000000000602082015250565b5f6116c1602d83610f0d565b91506116cc82611667565b604082019050919050565b5f6020820190508181035f8301526116ee816116b5565b9050919050565b5f6020828403121561170a57611709610ce9565b5b5f611717848285016111c3565b91505092915050565b7f596f75206d757374206f776e20746865204e46540000000000000000000000005f82015250565b5f611754601483610f0d565b915061175f82611720565b602082019050919050565b5f6020820190508181035f83015261178181611748565b905091905056fea26469706673582212202228c4e773352cf4f5364d925f2ffb07f3cc412b0ae56412211bd760318c1a6a64736f6c63430008150033a2646970667358221220be9e206573d96fd29e1f4ce689b674a91432627484475322d6cdc3dd7efd904b64736f6c63430008150033",
  "immutableReferences": {},
  "source": "//SPDX-License-Identifier: Unlicense\npragma solidity ^0.8.19;\n\nimport {RWAVault} from \"./Vault.sol\";\n\ncontract VaultFactory {\n    mapping(address => RWAVault[]) public vaultMapping;\n\n    function CreateNewVault(address _tokenfactory) public {\n        RWAVault vault = new RWAVault(_tokenfactory);\n        vaultMapping[msg.sender].push(vault);\n    }\n}\n",
  "sourcePath": "/home/badass/Documents/ethindia23/contracts/VaultFactory.sol",
  "compiler": {
    "name": "solc",
    "version": "0.8.21+commit.d9974bed.Emscripten.clang"
  },
  "schemaVersion": "3.4.16",
  "updatedAt": "2023-12-09T12:29:42.050Z",
  "networkType": "ethereum",
  "devdoc": {
    "kind": "dev",
    "methods": {},
    "version": 1
  },
  "userdoc": {
    "kind": "user",
    "methods": {},
    "version": 1
  }
}